:100000000C94BC000C94D9000C94A20D0C94D90053
:100010000C94D9000C94D9000C94D9000C94D900FC
:100020000C94D9000C94D9000C94D9000C94D900EC
:100030000C94D9000C94D9000C94D9000C94D900DC
:100040000C94D9000C94D9000C94D9000C94D900CC
:100050000C94D9000C94D9000C94D9000C94D900BC
:100060000C94D9000C94D9000C94D9000C94D900AC
:100070000C94D9000C94D9000C94D9000C94D9009C
:100080000C94D9000C94D9000C94D9000C94D9008C
:100090000C94D9000C94D9000C94D9000C94D9007C
:1000A0000C94D9000C94D9000C94D9000C94D9006C
:1000B0000C94D9000C94D9000C94D9000C94D9005C
:1000C0000C94D9000C94D9000C94D9000C94D9004C
:1000D0000C94D9000C94D9000C94D9000C94D9003C
:1000E0000C94D9000C94D9000C94660A0C94D00A94
:1000F0000C94D9000C94D9000C94D9000C94D9001C
:100100000C94D9000C94D9000C94D9000C94D9000B
:100110000C9439050C94D9000C94D9000C94D90096
:100120000C94D9000C94D9000C94D9000C94D900EB
:100130000C94D9000C94D9000C94D9000C94D900DB
:100140000C94D9000C94D9000C94D9000C94D900CB
:100150000C94D9000C94D9000C94D9000C94D900BB
:100160000C94D9000C94D9000C94D9000C94D900AB
:100170000C94D9000C94D90011241FBECFEFD7E204
:10018000DEBFCDBF10E2A0E0B0E2E4EAFCE102C0D5
:1001900005900D92A231B107D9F712E2A2E1B0E2C7
:1001A00001C01D92A632B107E1F70E9415020C941E
:1001B000500E0C940000893221F4E0E8F3E0148240
:1001C000089581E0E0E8F3E084830895E0E8F3E057
:1001D0008DE0808383E082838AE20E94DB000895C1
:1001E000813031F0823041F48DE0809380030895B6
:1001F0008BE080938003089589E0809380030895C5
:10020000813029F488E2E0E8F3E08283089583E016
:10021000E0E8F3E0828308950895E0E0F2E080E111
:100220008283118291E0908381A388E181A7089560
:1002300081E8E0E0F2E080A383A18823E9F3E0E035
:10024000F2E081E083A384A195A1089581E8E0E034
:10025000F2E080A783A58823E9F3E0E0F2E081E003
:1002600083A784A595A50895CF92DF92EF92FF9280
:100270000F931F93CF93DF938C011092192010924C
:100280001A208FEF9FEF80931B2090931C20011565
:10029000110549F1C0E0D0E0CC24DD2476010E94B4
:1002A0001801AC0160E070E0C40ED51EE61EF71E1A
:1002B00020911B2030911C208217930720F48093FB
:1002C0001B2090931C202091192030911A20281770
:1002D000390720F48093192090931A202196C01793
:1002E000D107E9F603C0CC24DD2476010093162063
:1002F000980140E050E0C701B6010E942E0E209305
:10030000172030931820DF91CF911F910F91FF900C
:10031000EF90DF90CF900895CF92DF92EF92FF920F
:100320000F931F93CF93DF938C011092192010929B
:100330001A208FEF9FEF80931B2090931C200115B4
:10034000110549F1C0E0D0E0CC24DD2476010E9403
:100350002601AC0160E070E0C40ED51EE61EF71E5B
:1003600020911B2030911C208217930720F480934A
:100370001B2090931C202091192030911A202817BF
:10038000390720F48093192090931A202196C017E2
:10039000D107E9F603C0CC24DD24760100931620B2
:1003A000980140E050E0C701B6010E942E0E209354
:1003B000172030931820DF91CF911F910F91FF905C
:1003C000EF90DF90CF9008950895E0E2F3E08DE0A4
:1003D000808380E4818388E082830895893231F4C8
:1003E000E0E2F3E080818B7F80830895E0E2F3E038
:1003F0008081846080830895E0E2F3E0808F918FB4
:10040000808D918D0895E0E2F3E0828F938F828D4D
:10041000938D0895E0E2F3E0808D918D0895E0E200
:10042000F3E0828D938D089508950E94460DE0E5D6
:10043000F0E082E282838BE0808380E00E948C0D7A
:10044000E0E5F0E081818B30E9F780E00E94880DE3
:10045000E0E5F0E082E0868381E08093600098ED43
:1004600094BF809340008AE0808380EA9AE060E055
:100470000E94600680EA9AE00E94E90C80EB99E015
:1004800060E00E9460060E940D010E94E5010E944A
:10049000E6000E94A303E0E0F8E087E080838DE3BC
:1004A00090E086A397A387E8E0EAF0E0828378945F
:1004B00080E00E94880D81E00E94880D80E061E06C
:1004C0000E94770D12E001E06624689461F8992497
:1004D000689492F80F2EF3E08F2EF02D0F2EFEEE83
:1004E000EF2EFEEEFF2EF02DCC24CA94DC2CAA2495
:1004F000BB246894B0F80F2EF5E07F2EF02DC0E0FD
:10050000D8E001C001950E94B2050E94E60D0E944C
:10051000A10D0E94C40D0E942F0D809115208130E5
:1005200091F40E94D603882331F481E08093122055
:100530000E948C0D08C0609212208AE20E94EE0197
:1005400081E00E948C0D80911220833009F499C0C3
:10055000843030F4813059F0823009F0E4C023C097
:10056000843009F491C0853009F0DDC0D7C080E047
:1005700094E00E948C0180911720909118209C019A
:10058000220F331F220F331F820F931F96958795DB
:10059000969587959695879586559F4F0E94FC0165
:1005A00080921220C0C0109217201092182024C0F0
:1005B00080E290E00E948C01809117209091182099
:1005C0002EEE8F3E9207C0F40E940A02009721F49B
:1005D000E0921720F09218200E940A0284369105BA
:1005E00038F00E940A02845690400E94FC0104C028
:1005F00080E090E00E94FC018091172090911820EB
:100600002EEE8E3E9207A0F2C0921720D0921820B4
:1006100027C080E290E00E948C0180911720909189
:1006200018208F3F9105E1F0D8F00E940A022FE0D8
:100630008F3F920721F4A0921720B09218200E94B9
:100640000A022FE08F3F920738F40E940A028C5969
:100650009F4F0E94FC0104C08FEF9FE00E94FC01AD
:10066000809117209091182021E08130920788F620
:100670000E940A02885A9D4F0E94FC01709212202B
:1006800052C0909212204FC080E094E00E9434014A
:100690008091192090911A209C01220F331F220F64
:1006A000331F820F931F96958795969587959695FC
:1006B000879580509E4F0E94030280EA9AE060E294
:1006C0000E94BE0680EA9AE06BE20E94BE0660913C
:1006D000192070911A20CB01880F991F880F991F3C
:1006E000680F791F769567957695679576956795E6
:1006F00080EA9AE00E94C20880EA9AE06EE20E94D4
:10070000BE066091192070911A2080EA9AE00E943A
:10071000C20880EA9AE060E20E94BE0681E00E9480
:10072000880D109212208C8580FFFDCF81E08C8790
:1007300080E0612F0E94770D100F812F81508E3F36
:1007400008F0E0CEE0CE80E090E280932222909309
:1007500023220895CF93DF93E0E0FAE085E08083E1
:1007600011821282138214828AE20E94EE0180EDCD
:1007700097E00E940302C0E8D3E083E08A8389E225
:100780000E94DB008DE38883E0E0F6E080E886836A
:10079000818310921220DF91CF9108951092000A68
:1007A00089E20E94EE010E94E600089580E00E9426
:1007B000C50D0895809310200895E0E0FAE010A29E
:1007C00011A28FEF848708950E94DD0308959C0194
:1007D0006817790730F481E02417350718F080E0B6
:1007E000089580E008958FE48093112080E20E94B4
:1007F0006D0C8CE30E946D0C8DE20E946D0C8FE4F9
:100800000E946D0C8EE40E946D0C08958EE480931E
:10081000112080E20E946D0C8CE30E946D0C8DE231
:100820000E946D0C8FE40E946D0C86E40E946D0C9A
:1008300086E40E946D0C089580911120803531F07E
:1008400080E58093112084E18093132080E20E9450
:100850006D0C8CE30E946D0C8DE20E946D0C80E5A6
:100860000E946D0C85E50E946D0C8CE40E946D0C5D
:1008700083E50E946D0C85E40E946D0C089580E272
:100880000E946D0C8CE30E946D0C8DE20E946D0C39
:1008900087E50E946D0C84E50E946D0C86E40E9441
:1008A0006D0C81E20E946D0C089580930F2082E30D
:1008B00080930E20089590910F20953809F442C03E
:1008C000963840F49338D1F0943858F5923809F0BE
:1008D0005AC00DC0973809F44AC0973808F443C08D
:1008E000983809F448C0993809F04DC048C081349F
:1008F00009F04CC083E80E9455040895823429F021
:10090000833439F0813449F4089584E80E94550411
:10091000089585E80E945504089582E80E945504D0
:100920000895823419F0833449F404C086E80E94A3
:100930005504089587E80E945504089582E80E94AE
:1009400055040895823419F0833449F404C088E8CA
:100950000E945504089589E80E945504089582E88C
:100960000E945504089582E880930F20089582E83C
:1009700080930F20089582E880930F20089582E8E5
:1009800080930F20089582E880930F200895CF93DD
:10099000DF93EC0180EB99E06DE20E94BE0680EBF4
:1009A00099E06DE20E94BE0680EB99E06DE20E9444
:1009B000BE0680EB99E0BE010E94C20880EB99E080
:1009C0006DE20E94BE0680EB99E06DE00E94BE06DB
:1009D000CE0160E070E140E050E20E94E703813028
:1009E00019F481E40E945B04CE0160E070E240E013
:1009F00050E30E94E703813019F482E40E945B0413
:100A0000CE0160E070E440E050E50E94E7038130F1
:100A100019F483E40E945B04CE0160E070E740E0DB
:100A200050E80E94E703813019F484E40E945B04DB
:100A3000DF91CF910895CF93DF93E0E0FAE0C0A17A
:100A4000D1A1848580FD12C08DE00E946D0C8AE0EA
:100A50000E946D0C8DE20E946D0C8DE20E946D0C67
:100A6000CE010E945C0ACE010E94C704DF91CF91A3
:100A700008951F920F920FB60F9211242F933F9358
:100A80004F935F936F937F938F939F93AF93BF9396
:100A9000CF93DF93EF93FF93E0E8F3E0878184FF48
:100AA00028C081E00E948C0D80911020873511F4C0
:100AB0000E94DD0380911020883509F040C0E0E0FD
:100AC000FAE0C0A1D1A1848580FD39C08DE00E94EB
:100AD0006D0C8AE00E946D0C8DE20E946D0C8DE21F
:100AE0000E946D0CCE010E945C0ACE010E94C704D8
:100AF00026C081E00E94880D809110208735C9F4BE
:100B0000E0E0FAE0C0A1D1A1848580FD12C08DE0B3
:100B10000E946D0C8AE00E946D0C8DE20E946D0CAB
:100B20008DE20E946D0CCE010E945C0ACE010E94F3
:100B3000C70480911020883511F40E94DD03FF91D5
:100B4000EF91DF91CF91BF91AF919F918F917F9165
:100B50006F915F914F913F912F910F900FBE0F902A
:100B60001F90189580910E20882329F08150809342
:100B70000E20882319F482E880930F2080911120A1
:100B80008F3419F08035D1F405C080E8E0E0F6E05C
:100B90008583089580911320882341F480E8E0E064
:100BA000F6E086838EE4809311200895815080932F
:100BB000132080E8E0E0F6E08583089580E8E0E037
:100BC000F6E0868308956F927F928F929F92AF9204
:100BD000BF92CF92DF92EF92FF920F931F93CF932A
:100BE000DF930E94F60CD0901D208D3008F459C080
:100BF00090E00F2EF3EF6F2EFFEF7F2EF02D680E9B
:100C0000791E77200CF44DC0CC240F2EF8E18F2EE6
:100C1000F1E29F2EF02DB82CA92C8401035F1F4F09
:100C20000F2EFEE1EF2EF0E2FF2EF02D89EF8D1555
:100C300008F4DD242D2D30E02A5F3040D401CB2D87
:100C4000DA2DC90186509F4F8A3F910534F0F70194
:100C5000E20FF31F80818C9305C08E0D9F1DFC0158
:100C600080818C932F5F3F4F1196A017B10749F7F2
:100C7000E0912222F091232221E091918991981311
:100C800020E0C017D107C9F7213021F40E941C04CD
:100C90000E94E40CD394C3948C2D90E068167906DE
:100CA0002CF6DF91CF911F910F91FF90EF90DF9085
:100CB000CF90BF90AF909F908F907F906F9008954E
:100CC000FC0188E0E03AF80751F4A0E4B6E088E0DF
:100CD00011968C93119715968C93159737C088E0D1
:100CE000E03BF80751F4A0E4B6E080E811968C935D
:100CF000119715968C93159729C089E0E03AF8076B
:100D000051F4A0E6B6E088E011968C931197159601
:100D10008C9315971BC089E0E03BF80751F4A0E6DF
:100D2000B6E080E811968C93119715968C931597E1
:100D30000DC08AE0E03AF80749F4A0E8B6E088E0A0
:100D400011968C93119715968C931597613039F005
:100D5000623051F48CEA878385EC868309C088EA87
:100D600087838EE6868304C084EA878387E186834F
:100D7000138288E1848383E085830895FC01818167
:100D800085FFFDCF60830895CF92DF92EF92FF92AF
:100D90000F931F93CF93DF936C01E62FF72FEF0193
:100DA00009900020E9F72197CE1BDF0B79F0E62EA2
:100DB000F72E00E010E0F70161917F01C6010E946B
:100DC000BE060F5F1F4F0C171D07A9F7DF91CF91CC
:100DD0001F910F91FF90EF90DF90CF900895CF93E8
:100DE000DF93EC01673009F49DC0683090F4633004
:100DF00009F458C0643030F46130A1F1623008F079
:100E000041C020C0653009F46DC0663008F07AC07A
:100E100059C06B3009F4C6C06C3038F4693009F43D
:100E2000A1C06A3008F0AEC08DC06D3009F4DAC0E0
:100E30006D3008F4C7C06E3009F4E4C06F3009F0BB
:100E400000C1F0C060E30E94BE06CE0160E30E94D4
:100E5000BE06CE0160E30E94BE06CE0160E30E94A2
:100E6000BE06EFC060E30E94BE06CE0160E30E94B2
:100E7000BE06CE0160E30E94BE06CE0161E30E9481
:100E8000BE06DFC060E30E94BE06CE0160E30E94A2
:100E9000BE06CE0161E30E94BE06CE0160E30E9461
:100EA000BE06CFC060E30E94BE06CE0160E30E9492
:100EB000BE06CE0161E30E94BE06CE0161E30E9440
:100EC000BE06BFC060E30E94BE06CE0161E30E9481
:100ED000BE06CE0160E30E94BE06CE0160E30E9422
:100EE000BE06AFC060E30E94BE06CE0161E30E9471
:100EF000BE06CE0160E30E94BE06CE0161E30E9401
:100F0000BE069FC060E30E94BE06CE0161E30E9460
:100F1000BE06CE0161E30E94BE06CE0160E30E94E0
:100F2000BE068FC060E30E94BE06CE0161E30E9450
:100F3000BE06CE0161E30E94BE06CE0161E30E94BF
:100F4000BE067FC061E30E94BE06CE0160E30E9440
:100F5000BE06CE0160E30E94BE06CE0160E30E94A1
:100F6000BE066FC061E30E94BE06CE0160E30E9430
:100F7000BE06CE0160E30E94BE06CE0161E30E9480
:100F8000BE065FC061E30E94BE06CE0160E30E9420
:100F9000BE06CE0161E30E94BE06CE0160E30E9460
:100FA000BE064FC061E30E94BE06CE0160E30E9410
:100FB000BE06CE0161E30E94BE06CE0161E30E943F
:100FC000BE063FC061E30E94BE06CE0161E30E94FF
:100FD000BE06CE0160E30E94BE06CE0160E30E9421
:100FE000BE062FC061E30E94BE06CE0161E30E94EF
:100FF000BE06CE0160E30E94BE06CE0161E30E9400
:10100000BE061FC061E30E94BE06CE0161E30E94DE
:10101000BE06CE0161E30E94BE06CE0160E30E94DF
:10102000BE060FC061E30E94BE06CE0161E30E94CE
:10103000BE06CE0161E30E94BE06CE0161E30E94BE
:10104000BE06DF91CF9108951F93CF93DF93EC01FC
:10105000162F62E60E94BE06612F62956F70CE0168
:101060000E94EF06612F6F70CE010E94EF06DF91A4
:10107000CF911F910895673009F43FC0683070F434
:10108000633059F1643028F46130F9F0623008F5CA
:1010900018C0653051F1663060F523C06B30E9F15E
:1010A0006C3028F4693089F16A3098F52AC06D30C7
:1010B000E1F16D30B0F16E30E1F16F3009F040C018
:1010C0003CC060E30E94BE06089561E30E94BE0634
:1010D000089562E30E94BE06089563E30E94BE067F
:1010E000089564E30E94BE06089565E30E94BE066B
:1010F000089566E30E94BE06089567E30E94BE0657
:10110000089568E30E94BE06089569E30E94BE0642
:10111000089561E40E94BE06089562E40E94BE063E
:10112000089563E40E94BE06089564E40E94BE062A
:10113000089565E40E94BE06089566E40E94BE0616
:1011400008951F93CF93DF93EC01162F62956F7074
:101150000E943B08612F6F70CE010E943B08DF9117
:10116000CF911F9108951F93CF93DF93EC01142F1C
:101170000E94A108CE01612F0E94A108DF91CF91AA
:101180001F9108951F93CF93DF93EC01162F672FC4
:101190000E94A108CE01612F0E94A108DF91CF918A
:1011A0001F910895873009F487C0883088F4833010
:1011B00009F44EC0843028F4813081F18230D8F5B2
:1011C00020C0853009F45EC0863008F068C04DC08C
:1011D0008B3009F4A5C08C3038F4893009F486C00E
:1011E0008A3008F090C075C08D3009F4B3C08D30DE
:1011F00008F4A3C08E3009F4BAC08F3009F0D0C013
:10120000C3C080E30E946D0C80E30E946D0C80E3FC
:101210000E946D0C80E30E946D0C089580E30E9493
:101220006D0C80E30E946D0C80E30E946D0C81E3E5
:101230000E946D0C089580E30E946D0C80E30E9473
:101240006D0C81E30E946D0C80E30E946D0C08958B
:1012500080E30E946D0C80E30E946D0C81E30E948C
:101260006D0C81E30E946D0C089580E30E946D0C6B
:1012700081E30E946D0C80E30E946D0C80E30E946C
:101280006D0C089580E30E946D0C81E30E946D0C4B
:1012900080E30E946D0C81E30E946D0C089580E351
:1012A0000E946D0C81E30E946D0C81E30E946D0C25
:1012B00080E30E946D0C089580E30E946D0C81E331
:1012C0000E946D0C81E30E946D0C81E30E946D0C05
:1012D000089581E30E946D0C80E30E946D0C80E311
:1012E0000E946D0C80E30E946D0C089581E30E94C2
:1012F0006D0C80E30E946D0C80E30E946D0C81E315
:101300000E946D0C089581E30E946D0C80E30E94A1
:101310006D0C81E30E946D0C80E30E946D0C0895BA
:1013200081E30E946D0C80E30E946D0C81E30E94BA
:101330006D0C81E30E946D0C089581E30E946D0C99
:1013400081E30E946D0C80E30E946D0C80E30E949B
:101350006D0C089581E30E946D0C81E30E946D0C79
:1013600080E30E946D0C81E30E946D0C089581E37F
:101370000E946D0C81E30E946D0C81E30E946D0C54
:1013800080E30E946D0C089581E30E946D0C81E35F
:101390000E946D0C81E30E946D0C81E30E946D0C34
:1013A0000895CF93C82F82E60E946D0C8C2F8295F2
:1013B0008F700E94D2088C2F8F700E94D208CF911C
:1013C0000895873009F43FC0883070F4833059F1B4
:1013D000843028F48130F9F0823008F518C0853067
:1013E00051F1863060F523C08B30E9F18C3028F460
:1013F000893089F18A3098F52AC08D30E1F18D303D
:10140000B0F18E30E1F18F3009F040C03CC080E394
:101410000E946D0C089581E30E946D0C089582E393
:101420000E946D0C089583E30E946D0C089584E37F
:101430000E946D0C089585E30E946D0C089586E36B
:101440000E946D0C089587E30E946D0C089588E357
:101450000E946D0C089589E30E946D0C089581E44B
:101460000E946D0C089582E40E946D0C089583E43F
:101470000E946D0C089584E40E946D0C089585E42B
:101480000E946D0C089586E40E946D0C0895CF9320
:10149000C82F82958F700E94E1098C2F8F700E9457
:1014A000E109CF910895CF93C62F0E94470A8C2F50
:1014B0000E94470ACF910895CF93C82F892F0E9489
:1014C000470A8C2F0E94470ACF9108951F920F92CE
:1014D0000FB60F9211242F933F938F939F93AF9347
:1014E000BF93EF93FF93E0912422F09125228EE1A8
:1014F00090E212C0208130912022DC01A30FB11DA7
:101500002C93209120222F5F2093202220912022B3
:101510002A3F10F01092202221812223A4F430913E
:10152000202220911D20321730F02091202230916E
:101530001D20231B06C02091202230911D20265003
:10154000231B2A3FB8F2FF91EF91BF91AF919F917A
:101550008F913F912F910F900FBE0F901F90189574
:10156000E0912422F0912522838180638383089572
:10157000E0912422F091252283818F7C838308953A
:10158000E0912422F0912522838182608383089553
:10159000E0912422F091252283818C7F838308951A
:1015A0001F920F920FB60F9211242F933F934F93D8
:1015B0005F936F937F938F939F93AF93BF93EF93BB
:1015C000FF93E0912422F0912522818185FD1BC0AB
:1015D00030C020912122309121223F5F309321227F
:1015E000309121223A3F10F010922122DC01A20F0B
:1015F000B11D2C912083E0912422F091252221819C
:1016000025FD03C016C086E291E23091252120918C
:101610002122321730F02091252130912122231BE5
:1016200006C020912521309121222650231B222300
:1016300081F69091252180912122981730F0809198
:10164000252190912122891B06C08091252190910E
:1016500021228650891B882319F00E94C00A02C0EB
:101660000E94C80AFF91EF91BF91AF919F918F9116
:101670007F916F915F914F913F912F910F900FBE8E
:101680000F901F901895E0912422F09125228181DE
:1016900085FD1BC030C020912122309121223F5F67
:1016A00030932122309121223A3F10F010922122D2
:1016B000DC01A20FB11D2C912083E0912422F09136
:1016C0002522218125FD03C016C086E291E23091DA
:1016D000252120912122321730F0209125213091AF
:1016E0002122231B06C02091252130912122265042
:1016F000231B222381F69091252180912122981786
:1017000030F08091252190912122891B06C0809183
:101710002521909121228650891B882319F00E944F
:10172000C00A08950E94C80A0895E0912422F09109
:1017300025228EE190E212C0208130912022DC012E
:10174000A30FB11D2C93209120222F5F20932022E4
:10175000209120222A3F10F0109220222181222362
:10176000A4F43091202220911D20321730F02091D6
:10177000202230911D20231B06C020912022309171
:101780001D202650231B2A3FB8F2089510922521D0
:10179000109221220895909125218091212298175D
:1017A00030F08091252190912122891B089580910C
:1017B0002521909121228650891B0895CF92DF9296
:1017C000EF92FF920F931F93CF93DF93E82FF92FA0
:1017D000DF010D900020E9F711976D01CE1ADF0AA5
:1017E00009F472C0E82EF92E00E010E0C6E2D1E262
:1017F000F70181917F0190912521FE01E90FF11DF3
:101800008083809125218F5F8093252180912521E0
:101810008A3F10F010922521A0912422B091252218
:1018200011968C91119785FD1CC02FC080912122AB
:10183000909121229F5F90932122909121229A3FA3
:1018400010F010922122FE01E80FF11D80818C938F
:10185000A0912422B091252211968C91119785FF99
:1018600014C09091252180912122981730F0809109
:10187000252190912122891B06C0809125219091DC
:1018800021228650891B882389F6909125218091F9
:101890002122981730F08091252190912122891BD7
:1018A00006C080912521909121228650891B882392
:1018B00019F00E94C00A02C00E94C80A0F5F1F4FA1
:1018C0000C151D0509F094CFDF91CF911F910F9159
:1018D000FF90EF90DF90CF90089590912521E6E260
:1018E000F1E2E90FF11D8083809125218F5F8093C4
:1018F0002521809125218A3F10F010922521E09129
:101900002422F0912522818185FD1BC030C02091C9
:101910002122309121223F5F3093212230912122D8
:101920003A3F10F010922122DC01A20FB11D2C9140
:101930002083E0912422F0912522218125FD03C0FE
:1019400016C086E291E230912521209121223217A2
:1019500030F02091252130912122231B06C02091B7
:101960002521309121222650231B222381F690919C
:10197000252180912122981730F080912521909186
:101980002122891B06C08091252190912122865019
:10199000891B882319F00E94C00A08950E94C80A72
:1019A000089580912122909121229F5F909321227E
:1019B000909121229A3F10F010922122E6E2F1E26A
:1019C000E80FF11D808108951092202210921D20B1
:1019D000089580932422909325220E94C60B0E9492
:1019E000E40C0E94B00A0E94C00A0895909120223F
:1019F00080911D20981730F08091202290911D2019
:101A0000891B08958091202290911D208650891B6A
:101A1000089590912022EEE1F0E2E90FF11D80831C
:101A2000809120228F5F80932022809120228A3F04
:101A300010F010922022089580911D2090911D2079
:101A40009F5F90931D2090911D209A3F10F010925F
:101A50001D20EEE1F0E2E80FF11D808108959091E4
:101A6000202280911D20981730F0809120229091A3
:101A70001D20891B06C08091202290911D20865038
:101A8000891B882311F00E94E3050895E0E6F6E043
:101A900081E18183858380E4808B848BE0E0F9E0C1
:101AA00057E0508343E141838FEF90E086A397A3F3
:101AB00020E830E020A731A7E0E4F9E0508341833B
:101AC00086A397A380E190E080A791A7E0E4F6E0E9
:101AD0008CE3828388E9858B848B838B84E0828787
:101AE00083E081878AE9828B1092152008958823EC
:101AF00019F0813061F406C070E0E0E4F9E060AF15
:101B000071AF089570E0E0E0F9E060AF71AF089563
:101B100060E00E94770D08956FEF0E94770D0895A1
:101B2000882319F0813061F406C0E0E4F9E080A573
:101B3000809580A70895E0E0F9E080A5809580A7D2
:101B4000089508951F920F920FB60F9211248F934C
:101B5000EF93FF93E0E4F6E082898A3931F489E972
:101B6000828B81E08093152007C08AE9E0E4F6E0EB
:101B7000828B82E080931520FF91EF918F910F90DF
:101B80000FBE0F901F9018950895813069F0813035
:101B900018F08230C9F410C0E0E4F6E0908581E0EE
:101BA00095FF13C080E00895E0E4F6E0908581E0C1
:101BB00094FF0BC080E00895E0E4F6E0908581E0BA
:101BC00093FF03C080E0089580E0089580E00E94C4
:101BD000C50D813051F480911420853379F085E36F
:101BE000809314200E94AA0309C080911420863398
:101BF00029F086E3809314200E94CE0381E00E94A6
:101C0000C50D813061F40E94D603882321F481E060
:101C10000E9400010FC088E50E94DA030BC00E94F9
:101C2000D603882321F482E00E94000103C087E5E7
:101C30000E94DA0382E00E94C50D813041F40E94C7
:101C4000D603882351F482E00E94F00008950E9498
:101C5000D603882311F40E94F0000895A1E21A2E01
:101C6000AA1BBB1BFD010DC0AA1FBB1FEE1FFF1F40
:101C7000A217B307E407F50720F0A21BB30BE40B90
:101C8000F50B661F771F881F991F1A9469F76095D7
:101C90007095809590959B01AC01BD01CF01089591
:041CA000F894FFCFE6
:101CA4006C6576656C5F7265737461727400328200
:021CB400574E89
:00000001FF
