:100000000C94BC000C94D9000C94BB0B0C94D9003C
:100010000C94D9000C94D9000C94D9000C94D900FC
:100020000C94D9000C94D9000C94D9000C94D900EC
:100030000C94D9000C94D9000C94D9000C94D900DC
:100040000C94D9000C94D9000C94D9000C94D900CC
:100050000C94D9000C94D9000C94D9000C94D900BC
:100060000C94D9000C94D9000C94D9000C94D900AC
:100070000C94D9000C94D9000C94D9000C94D9009C
:100080000C94D9000C94D9000C94D9000C94D9008C
:100090000C94D9000C94D9000C94D9000C94D9007C
:1000A0000C94D9000C94D9000C94D9000C94D9006C
:1000B0000C94D9000C94D9000C94D9000C94D9005C
:1000C0000C94D9000C94D9000C94D9000C94D9004C
:1000D0000C94D9000C94D9000C94D9000C94D9003C
:1000E0000C94D9000C94D9000C94D9000C94180AE3
:1000F0000C94D9000C94D9000C94D9000C94D9001C
:100100000C94D9000C94D9000C94D9000C94D9000B
:100110000C9431050C94D9000C94D9000C94D9009E
:100120000C94D9000C94D9000C94D9000C94D900EB
:100130000C94D9000C94D9000C94D9000C94D900DB
:100140000C94D9000C94D9000C94D9000C94D900CB
:100150000C94D9000C94D9000C94D9000C94D900BB
:100160000C94D9000C94D9000C94D9000C94D900AB
:100170000C94D9000C94D90011241FBECFEFD7E204
:10018000DEBFCDBF10E2A0E0B0E2E6EDF8E102C0D4
:1001900005900D92A430B107D9F711E2A4E0B0E2C6
:1001A00001C01D92A931B107E1F70E9415020C941C
:1001B000690C0C940000893221F4E0E8F3E0148229
:1001C000089581E0E0E8F3E084830895E0E8F3E057
:1001D0008DE0808383E082838AE20E94DB000895C1
:1001E000813031F0823041F48DE0809380030895B6
:1001F0008BE080938003089589E0809380030895C5
:10020000813029F488E2E0E8F3E08283089583E016
:10021000E0E8F3E0828308950895E0E0F2E080E111
:100220008283118291E0908381A388E181A7089560
:1002300081E8E0E0F2E080A383A18823E9F3E0E035
:10024000F2E081E083A384A195A1089581E8E0E034
:10025000F2E080A783A58823E9F3E0E0F2E081E003
:1002600083A784A595A50895CF92DF92EF92FF9280
:100270000F931F93CF93DF938C0110920B2010925A
:100280000C208FEF9FEF80930D2090930E2001158F
:10029000110549F1C0E0D0E0CC24DD2476010E94B4
:1002A0001801AC0160E070E0C40ED51EE61EF71E1A
:1002B00020910D2030910E208217930720F4809317
:1002C0000D2090930E2020910B2030910C202817A8
:1002D000390720F480930B2090930C202196C017AF
:1002E000D107E9F603C0CC24DD2476010093082071
:1002F000980140E050E0C701B6010E94470C2093EE
:10030000092030930A20DF91CF911F910F91FF9028
:10031000EF90DF90CF900895CF92DF92EF92FF920F
:100320000F931F93CF93DF938C0110920B201092A9
:100330000C208FEF9FEF80930D2090930E200115DE
:10034000110549F1C0E0D0E0CC24DD2476010E9403
:100350002601AC0160E070E0C40ED51EE61EF71E5B
:1003600020910D2030910E208217930720F4809366
:100370000D2090930E2020910B2030910C202817F7
:10038000390720F480930B2090930C202196C017FE
:10039000D107E9F603C0CC24DD24760100930820C0
:1003A000980140E050E0C701B6010E94470C20933D
:1003B000092030930A20DF91CF911F910F91FF9078
:1003C000EF90DF90CF9008950895E0E2F3E08DE0A4
:1003D000808380E4818388E082830895893231F4C8
:1003E000E0E2F3E080818B7F80830895E0E2F3E038
:1003F0008081846080830895E0E2F3E0808F918FB4
:10040000808D918D0895E0E2F3E0828F938F828D4D
:10041000938D0895E0E2F3E0808D918D0895E0E200
:10042000F3E0828D938D089508950E945F0BE0E5BF
:10043000F0E082E282838BE0808380E00E94A50B63
:10044000E0E5F0E081818B30E9F780E00E94A10BCC
:10045000E0E5F0E082E0868381E08093600098ED43
:1004600094BF809340008AE0808380EA9AE060E055
:100470000E94DB0580EA9AE00E94900A80EB99E0F6
:1004800060E00E94DB050E940D010E94E5010E94D0
:10049000E6000E94A103E0E0F8E087E0808384E6C4
:1004A00090E086A397A387E8E0EAF0E0828378945F
:1004B00080E00E94A10B81E00E94A10B80E061E03E
:1004C0000E94900B12E001E06624689461F8992480
:1004D000689492F80F2EF3E08F2EF02D0F2EFEEE83
:1004E000EF2EFEEEFF2EF02DCC24CA94DC2CAA2495
:1004F000BB246894B0F80F2EF5E07F2EF02DC0E0FD
:10050000D8E001C001950E94AA050E94FF0B0E943D
:10051000BA0B0E94DD0B80910720813091F40E947C
:10052000CE03882331F481E0809304200E94A50B40
:1005300008C0609204208AE20E94EE0181E00E94DD
:10054000A50B80910420833009F499C0843030F4E5
:10055000813059F0823009F0E4C023C0843009F4BE
:1005600091C0853009F0DDC0D7C080E094E00E94E2
:100570008C018091092090910A209C01220F331F49
:10058000220F331F820F931F969587959695879517
:100590009695879586559F4F0E94FC018092042076
:1005A000C0C01092092010920A2024C080E290E07E
:1005B0000E948C018091092090910A202EEE8F3E9E
:1005C0009207C0F40E940A02009721F4E0920920E9
:1005D000F0920A200E940A028436910538F00E94A7
:1005E0000A02845690400E94FC0104C080E090E022
:1005F0000E94FC018091092090910A202EEE8E3EEF
:100600009207A0F2C0920920D0920A2027C080E26F
:1006100090E00E948C018091092090910A208F3FE8
:100620009105E1F0D8F00E940A022FE08F3F920777
:1006300021F4A0920920B0920A200E940A022FE021
:100640008F3F920738F40E940A028C599F4F0E94F4
:10065000FC0104C08FEF9FE00E94FC018091092003
:1006600090910A2021E08130920788F60E940A02C8
:10067000885A9D4F0E94FC017092042052C09092B3
:1006800004204FC080E094E00E94340180910B2050
:1006900090910C209C01220F331F220F331F820FD9
:1006A000931F9695879596958795969587958050F3
:1006B0009E4F0E94030280EA9AE060E20E9439069F
:1006C00080EA9AE06BE20E94390660910B207091FB
:1006D0000C20CB01880F991F880F991F680F791F75
:1006E00076956795769567957695679580EA9AE011
:1006F0000E94120880EA9AE06EE20E943906609138
:100700000B2070910C2080EA9AE00E94120880EA87
:100710009AE060E20E94390681E00E94A10B1092EB
:1007200004208C8580FFFDCF81E08C8780E0612FE5
:100730000E94900B100F812F81508E3F08F0E2CE67
:10074000E2CE0895CF93DF93E0E0FAE085E0808386
:1007500011821282138214828AE20E94EE0180EDDD
:1007600097E00E940302C0E8D3E083E08A8389E235
:100770000E94DB008DE38883E0E0F6E080E886837A
:10078000818310920420DF91CF9108951092000A86
:1007900089E20E94EE010E94E600089580E00E9436
:1007A000DE0B0895809302200895E0E0FAE010A2A5
:1007B00011A28FEF848708950E94D50308959C01AC
:1007C0006817790730F481E02417350718F080E0C6
:1007D000089580E008958FE48093032080E20E94D2
:1007E000AA0A8CE30E94AA0A8DE20E94AA0A8FE458
:1007F0000E94AA0A8EE40E94AA0A08958EE48093B9
:10080000032080E20E94AA0A8CE30E94AA0A8DE2D9
:100810000E94AA0A8FE40E94AA0A86E40E94AA0AF9
:1008200086E40E94AA0A089580910320803531F061
:1008300080E5809303208AE08093052080E20E9477
:10084000AA0A8CE30E94AA0A8DE20E94AA0A80E505
:100850000E94AA0A85E50E94AA0A8CE40E94AA0ABC
:1008600083E50E94AA0A85E40E94AA0A089580E20C
:100870000E94AA0A8CE30E94AA0A8DE20E94AA0A98
:1008800087E50E94AA0A84E50E94AA0A86E40E94DB
:10089000AA0A81E20E94AA0A08958093012082E3B5
:1008A00080930020089590910120953809F442C06A
:1008B000963840F49338D1F0943858F5923809F0CE
:1008C0005AC00DC0973809F44AC0973808F443C09D
:1008D000983809F448C0993809F04DC048C08134AF
:1008E00009F04CC083E80E944D040895823429F039
:1008F000833439F0813449F4089584E80E944D042A
:10090000089585E80E944D04089582E80E944D04F0
:100910000895823419F0833449F404C086E80E94B3
:100920004D04089587E80E944D04089582E80E94CE
:100930004D040895823419F0833449F404C088E8E2
:100940000E944D04089589E80E944D04089582E8AC
:100950000E944D04089582E880930120089582E862
:1009600080930120089582E880930120089582E811
:1009700080930120089582E8809301200895CF9309
:10098000DF93EC0180EB99E06DE20E94390680EB89
:1009900099E06DE20E94390680EB99E06DE20E94D9
:1009A000390680EB99E0BE010E94120880EB99E0C5
:1009B0006DE20E94390680EB99E06DE00E943906F5
:1009C000CE0160E070E140E050E20E94DF03813040
:1009D00019F481E40E945304CE0160E070E240E02B
:1009E00050E30E94DF03813019F482E40E94530433
:1009F000CE0160E070E440E050E50E94DF0381300A
:100A000019F483E40E945304CE0160E070E740E0F3
:100A100050E80E94DF03813019F484E40E945304FB
:100A2000DF91CF910895CF93DF93E0E0FAE0C0A18A
:100A3000D1A1848580FD12C08DE00E94AA0A8AE0BF
:100A40000E94AA0A8DE20E94AA0A8DE20E94AA0AC6
:100A5000CE010E94AC09CE010E94BF04DF91CF916C
:100A600008951F920F920FB60F9211242F933F9368
:100A70004F935F936F937F938F939F93AF93BF93A6
:100A8000CF93DF93EF93FF93E0E8F3E0878184FF58
:100A900028C081E00E94A50B80910220873511F4C7
:100AA0000E94D50380910220883509F040C0E0E023
:100AB000FAE0C0A1D1A1848580FD39C08DE00E94FB
:100AC000AA0A8AE00E94AA0A8DE20E94AA0A8DE27E
:100AD0000E94AA0ACE010E94AC09CE010E94BF0466
:100AE00026C081E00E94A10B809102208735C9F4C5
:100AF000E0E0FAE0C0A1D1A1848580FD12C08DE0C4
:100B00000E94AA0A8AE00E94AA0A8DE20E94AA0A0A
:100B10008DE20E94AA0ACE010E94AC09CE010E9479
:100B2000BF0480910220883511F40E94D503FF9103
:100B3000EF91DF91CF91BF91AF919F918F917F9175
:100B40006F915F914F913F912F910F900FBE0F903A
:100B50001F90189580910020882329F08150809360
:100B60000020882319F482E88093012080910320DB
:100B70008F3419F08035D1F405C080E8E0E0F6E06C
:100B80008583089580910520882341F480E8E0E082
:100B9000F6E086838EE4809303200895815080934D
:100BA000052080E8E0E0F6E08583089580E8E0E055
:100BB000F6E086830895FC0188E0E03AF80751F4F6
:100BC000A0E4B6E088E011968C93119715968C936B
:100BD000159737C088E0E03BF80751F4A0E4B6E091
:100BE00080E811968C93119715968C93159729C0D0
:100BF00089E0E03AF80751F4A0E6B6E088E0119603
:100C00008C93119715968C9315971BC089E0E03B48
:100C1000F80751F4A0E6B6E080E811968C9311979E
:100C200015968C9315970DC08AE0E03AF80749F4C1
:100C3000A0E8B6E088E011968C93119715968C93F6
:100C40001597613039F0623051F48CEA878385EC76
:100C5000868309C088EA87838EE6868304C084EA97
:100C6000878387E18683138288E1848383E0858399
:100C70000895FC01818185FFFDCF60830895CF93A6
:100C8000DF93EC01673009F49DC0683090F4633065
:100C900009F458C0643030F46130A1F1623008F0DA
:100CA00041C020C0653009F46DC0663008F07AC0DC
:100CB00059C06B3009F4C6C06C3038F4693009F49F
:100CC000A1C06A3008F0AEC08DC06D3009F4DAC042
:100CD0006D3008F4C7C06E3009F4E4C06F3009F01D
:100CE00000C1F0C060E30E943906CE0160E30E94BB
:100CF0003906CE0160E30E943906CE0160E30E940E
:100D00003906EFC060E30E943906CE0160E30E941D
:100D10003906CE0160E30E943906CE0161E30E94EC
:100D20003906DFC060E30E943906CE0160E30E940D
:100D30003906CE0161E30E943906CE0160E30E94CC
:100D40003906CFC060E30E943906CE0160E30E94FD
:100D50003906CE0161E30E943906CE0161E30E94AB
:100D60003906BFC060E30E943906CE0161E30E94EC
:100D70003906CE0160E30E943906CE0160E30E948D
:100D80003906AFC060E30E943906CE0161E30E94DC
:100D90003906CE0160E30E943906CE0161E30E946C
:100DA00039069FC060E30E943906CE0161E30E94CC
:100DB0003906CE0161E30E943906CE0160E30E944C
:100DC00039068FC060E30E943906CE0161E30E94BC
:100DD0003906CE0161E30E943906CE0161E30E942B
:100DE00039067FC061E30E943906CE0160E30E94AC
:100DF0003906CE0160E30E943906CE0160E30E940D
:100E000039066FC061E30E943906CE0160E30E949B
:100E10003906CE0160E30E943906CE0161E30E94EB
:100E200039065FC061E30E943906CE0160E30E948B
:100E30003906CE0161E30E943906CE0160E30E94CB
:100E400039064FC061E30E943906CE0160E30E947B
:100E50003906CE0161E30E943906CE0161E30E94AA
:100E600039063FC061E30E943906CE0161E30E946A
:100E70003906CE0160E30E943906CE0160E30E948C
:100E800039062FC061E30E943906CE0161E30E945A
:100E90003906CE0160E30E943906CE0161E30E946B
:100EA00039061FC061E30E943906CE0161E30E944A
:100EB0003906CE0161E30E943906CE0160E30E944B
:100EC00039060FC061E30E943906CE0161E30E943A
:100ED0003906CE0161E30E943906CE0161E30E942A
:100EE0003906DF91CF9108951F93CF93DF93EC01E3
:100EF000162F62E60E943906612F62956F70CE014F
:100F00000E943F06612F6F70CE010E943F06DF9165
:100F1000CF911F910895673009F43FC0683070F495
:100F2000633059F1643028F46130F9F0623008F52B
:100F300018C0653051F1663060F523C06B30E9F1BF
:100F40006C3028F4693089F16A3098F52AC06D3028
:100F5000E1F16D30B0F16E30E1F16F3009F040C079
:100F60003CC060E30E943906089561E30E9439069F
:100F7000089562E30E943906089563E30E943906EA
:100F8000089564E30E943906089565E30E943906D6
:100F9000089566E30E943906089567E30E943906C2
:100FA000089568E30E943906089569E30E943906AE
:100FB000089561E40E943906089562E40E943906AA
:100FC000089563E40E943906089564E40E94390696
:100FD000089565E40E943906089566E40E94390682
:100FE00008951F93CF93DF93EC01162F62956F70D6
:100FF0000E948B07612F6F70CE010E948B07DF91DB
:10100000CF911F9108951F93CF93DF93EC01142F7D
:101010000E94F107CE01612F0E94F107DF91CF916D
:101020001F9108951F93CF93DF93EC01162F672F25
:101030000E94F107CE01612F0E94F107DF91CF914D
:101040001F910895873009F487C0883088F4833071
:1010500009F44EC0843028F4813081F18230D8F513
:1010600020C0853009F45EC0863008F068C04DC0ED
:101070008B3009F4A5C08C3038F4893009F486C06F
:101080008A3008F090C075C08D3009F4B3C08D303F
:1010900008F4A3C08E3009F4BAC08F3009F0D0C074
:1010A000C3C080E30E94AA0A80E30E94AA0A80E3E8
:1010B0000E94AA0A80E30E94AA0A089580E30E947F
:1010C000AA0A80E30E94AA0A80E30E94AA0A81E396
:1010D0000E94AA0A089580E30E94AA0A80E30E945F
:1010E000AA0A81E30E94AA0A80E30E94AA0A08953C
:1010F00080E30E94AA0A80E30E94AA0A81E30E9478
:10110000AA0A81E30E94AA0A089580E30E94AA0A1B
:1011100081E30E94AA0A80E30E94AA0A80E30E9457
:10112000AA0A089580E30E94AA0A81E30E94AA0AFB
:1011300080E30E94AA0A81E30E94AA0A089580E33C
:101140000E94AA0A81E30E94AA0A81E30E94AA0AD5
:1011500080E30E94AA0A089580E30E94AA0A81E31C
:101160000E94AA0A81E30E94AA0A81E30E94AA0AB5
:10117000089581E30E94AA0A80E30E94AA0A80E3FC
:101180000E94AA0A80E30E94AA0A089581E30E94AD
:10119000AA0A80E30E94AA0A80E30E94AA0A81E3C5
:1011A0000E94AA0A089581E30E94AA0A80E30E948D
:1011B000AA0A81E30E94AA0A80E30E94AA0A08956B
:1011C00081E30E94AA0A80E30E94AA0A81E30E94A6
:1011D000AA0A81E30E94AA0A089581E30E94AA0A4A
:1011E00081E30E94AA0A80E30E94AA0A80E30E9487
:1011F000AA0A089581E30E94AA0A81E30E94AA0A2A
:1012000080E30E94AA0A81E30E94AA0A089581E36A
:101210000E94AA0A81E30E94AA0A81E30E94AA0A04
:1012200080E30E94AA0A089581E30E94AA0A81E34A
:101230000E94AA0A81E30E94AA0A81E30E94AA0AE4
:101240000895CF93C82F82E60E94AA0A8C2F829518
:101250008F700E9422088C2F8F700E942208CF91DD
:101260000895873009F43FC0883070F4833059F115
:10127000843028F48130F9F0823008F518C08530C8
:1012800051F1863060F523C08B30E9F18C3028F4C1
:10129000893089F18A3098F52AC08D30E1F18D309E
:1012A000B0F18E30E1F18F3009F040C03CC080E3F6
:1012B0000E94AA0A089581E30E94AA0A089582E37F
:1012C0000E94AA0A089583E30E94AA0A089584E36B
:1012D0000E94AA0A089585E30E94AA0A089586E357
:1012E0000E94AA0A089587E30E94AA0A089588E343
:1012F0000E94AA0A089589E30E94AA0A089581E437
:101300000E94AA0A089582E40E94AA0A089583E42A
:101310000E94AA0A089584E40E94AA0A089585E416
:101320000E94AA0A089586E40E94AA0A0895CF930B
:10133000C82F82958F700E9431098C2F8F700E9468
:101340003109CF910895CF93C62F0E9497098C2F12
:101350000E949709CF910895CF93C82F892F0E949B
:1013600097098C2F0E949709CF910895E09117213A
:10137000F09118218381826083830895E091172181
:10138000F091182183818C7F83830895E091172148
:10139000F0911821818185FD1BC030C0209116215C
:1013A000309116213F5F30931621309116213A3F3C
:1013B00010F010921621DC01A20FB11D2C91208398
:1013C000E0911721F0911821218125FD03C016C05D
:1013D0008BE190E230911A2020911621321730F0E3
:1013E00020911A2030911621231B06C020911A202B
:1013F000309116212650231B222381F690911A202A
:1014000080911621981730F080911A209091162122
:10141000891B06C080911A20909116218650891B45
:10142000882319F00E94B60908950E94BE09089504
:101430001F920F920FB60F9211242F933F934F9349
:101440005F936F937F938F939F93AF93BF93EF932C
:10145000FF93E0911721F0911821818185FD1BC038
:1014600030C020911621309116213F5F3093162114
:10147000309116213A3F10F010921621DC01A20F94
:10148000B11D2C912083E0911721F0911821218129
:1014900025FD03C016C08BE190E230911A20209107
:1014A0001621321730F020911A2030911621231B7B
:1014B00006C020911A20309116212650231B22238A
:1014C00081F690911A2080911621981730F0809122
:1014D0001A2090911621891B06C080911A209091A4
:1014E00016218650891B882319F00E94B60902C074
:1014F0000E94BE09FF91EF91BF91AF919F918F9193
:101500007F916F915F914F913F912F910F900FBEFF
:101510000F901F90189510921A201092162108957E
:1015200080931721909318210E948B0A089590911F
:101530001A2080911621981730F080911A209091EE
:101540001621891B089580911A20909116218650AA
:10155000891B089590911A20EBE1F0E2E90FF11D4B
:10156000808380911A208F5F80931A2080911A20A7
:101570008A3F10F010921A20E0911721F091182163
:10158000818185FD1BC030C020911621309116212C
:101590003F5F30931621309116213A3F10F01092A0
:1015A0001621DC01A20FB11D2C912083E09117219F
:1015B000F0911821218125FD03C016C08BE190E236
:1015C00030911A2020911621321730F020911A20E4
:1015D00030911621231B06C020911A20309116212C
:1015E0002650231B222381F690911A2080911621E8
:1015F000981730F080911A2090911621891B06C00F
:1016000080911A20909116218650891B882319F009
:101610000E94B60908950E94BE090895809116217E
:10162000909116219F5F90931621909116219A3FD9
:1016300010F010921621EBE1F0E2E80FF11D80812D
:1016400008951092152110920F2008959091152160
:1016500080910F20981730F08091152190910F20E4
:10166000891B08958091152190910F20865F891B19
:10167000089590911521E0E1F0E2E90FF11D8083DA
:10168000809115218F5F80931521809115218A30DB
:1016900010F010921521089580910F2090910F2045
:1016A0009F5F90930F2090910F209A3010F010922E
:1016B0000F20E0E1F0E2E80FF11D80810895E0E6FF
:1016C000F6E081E18183858380E4808B848BE0E098
:1016D000F9E057E0508343E141838FEF90E086A328
:1016E00097A320E830E020A731A7E0E4F9E0508399
:1016F000418386A397A380E190E080A791A7E0E4CF
:10170000F6E08CE3828388E9858B848B838B84E08D
:10171000828783E081878AE9828B1092072008956F
:10172000882319F0813061F406C070E0E0E4F9E04C
:1017300060AF71AF089570E0E0E0F9E060AF71AFC5
:10174000089560E00E94900B08956FEF0E94900B47
:101750000895882319F0813061F406C0E0E4F9E0CF
:1017600080A5809580A70895E0E0F9E080A58095A8
:1017700080A7089508951F920F920FB60F9211241B
:101780008F93EF93FF93E0E4F6E082898A3931F496
:1017900089E9828B81E08093072007C08AE9E0E431
:1017A000F6E0828B82E080930720FF91EF918F918A
:1017B0000F900FBE0F901F9018950895813069F01B
:1017C000813018F08230C9F410C0E0E4F6E0908572
:1017D00081E095FF13C080E00895E0E4F6E0908595
:1017E00081E094FF0BC080E00895E0E4F6E090858E
:1017F00081E093FF03C080E0089580E0089580E0D9
:101800000E94DE0B813051F480910620853379F0FF
:1018100085E3809306200E94A20309C080910620E0
:10182000863329F086E3809306200E94C60381E078
:101830000E94DE0B813061F40E94CE03882321F4E4
:1018400081E00E9400010FC088E50E94D2030BC016
:101850000E94CE03882321F482E00E94000103C08D
:1018600087E50E94D20382E00E94DE0B813041F4C2
:101870000E94CE03882351F482E00E94F000089574
:101880000E94CE03882311F40E94F0000895A1E283
:101890001A2EAA1BBB1BFD010DC0AA1FBB1FEE1FEA
:1018A000FF1FA217B307E407F50720F0A21BB30B35
:1018B000E40BF50B661F771F881F991F1A9469F7B1
:1018C00060957095809590959B01AC01BD01CF010D
:0618D0000895F894FFCF1B
:0418D6003282574EB5
:00000001FF
