:100000000C94BC000C94D9000C94240B0C94D900D3
:100010000C94D9000C94D9000C94D9000C94D900FC
:100020000C94D9000C94D9000C94D9000C94D900EC
:100030000C94D9000C94D9000C94D9000C94D900DC
:100040000C94D9000C94D9000C94D9000C94D900CC
:100050000C94D9000C94D9000C94D9000C94D900BC
:100060000C94D9000C94D9000C94D9000C94D900AC
:100070000C94D9000C94D9000C94D9000C94D9009C
:100080000C94D9000C94D9000C94D9000C94D9008C
:100090000C94D9000C94D9000C94D9000C94D9007C
:1000A0000C94D9000C94D9000C94D9000C94D9006C
:1000B0000C94D9000C94D9000C94D9000C94D9005C
:1000C0000C94D9000C94D9000C94D9000C94D9004C
:1000D0000C94D9000C94D9000C94D9000C94D9003C
:1000E0000C94D9000C94D9000C94D9000C9481097B
:1000F0000C94D9000C94D9000C94D9000C94D9001C
:100100000C94D9000C94D9000C94D9000C94D9000B
:100110000C94A6040C94D9000C94D9000C94D9002A
:100120000C94D9000C94D9000C94D9000C94D900EB
:100130000C94D9000C94D9000C94D9000C94D900DB
:100140000C94D9000C94D9000C94D9000C94D900CB
:100150000C94D9000C94D9000C94D9000C94D900BB
:100160000C94D9000C94D9000C94D9000C94D900AB
:100170000C94D9000C94D90011241FBECFEFD7E204
:10018000DEBFCDBF10E2A0E0B0E2E8EAF7E102C0D6
:1001900005900D92A230B107D9F711E2A2E0B0E2CA
:1001A00001C01D92A831B107E1F70E9415020C941D
:1001B000D20B0C940000893221F4E0E8F3E01482C1
:1001C000089581E0E0E8F3E084830895E0E8F3E057
:1001D0008DE0808383E082838AE20E94DB000895C1
:1001E000813031F0823041F48DE0809380030895B6
:1001F0008BE080938003089589E0809380030895C5
:10020000813029F488E2E0E8F3E08283089583E016
:10021000E0E8F3E0828308950895E0E0F2E080E111
:100220008283118291E0908381A388E181A7089560
:1002300081E8E0E0F2E080A383A18823E9F3E0E035
:10024000F2E081E083A384A195A1089581E8E0E034
:10025000F2E080A783A58823E9F3E0E0F2E081E003
:1002600083A784A595A50895CF92DF92EF92FF9280
:100270000F931F93CF93DF938C0110920A2010925B
:100280000B208FEF9FEF80930C2090930D20011592
:10029000110549F1C0E0D0E0CC24DD2476010E94B4
:1002A0001801AC0160E070E0C40ED51EE61EF71E1A
:1002B00020910C2030910D208217930720F4809319
:1002C0000C2090930D2020910A2030910B202817AC
:1002D000390720F480930A2090930B202196C017B1
:1002E000D107E9F603C0CC24DD2476010093072072
:1002F000980140E050E0C701B6010E94B00B209386
:10030000082030930920DF91CF911F910F91FF902A
:10031000EF90DF90CF900895CF92DF92EF92FF920F
:100320000F931F93CF93DF938C0110920A201092AA
:100330000B208FEF9FEF80930C2090930D200115E1
:10034000110549F1C0E0D0E0CC24DD2476010E9403
:100350002601AC0160E070E0C40ED51EE61EF71E5B
:1003600020910C2030910D208217930720F4809368
:100370000C2090930D2020910A2030910B202817FB
:10038000390720F480930A2090930B202196C01700
:10039000D107E9F603C0CC24DD24760100930720C1
:1003A000980140E050E0C701B6010E94B00B2093D5
:1003B000082030930920DF91CF911F910F91FF907A
:1003C000EF90DF90CF9008950895E0E2F3E08DE0A4
:1003D000808380E4818388E082830895893231F4C8
:1003E000E0E2F3E080818B7F80830895E0E2F3E038
:1003F0008081846080830895E0E2F3E0808F918FB4
:10040000808D918D0895E0E2F3E0828F938F828D4D
:10041000938D0895E0E2F3E0808D918D0895E0E200
:10042000F3E0828D938D089508950E94C80AE0E557
:10043000F0E082E282838BE0808380E00E940E0BFA
:10044000E0E5F0E081818B30E9F780E00E940A0B63
:10045000E0E5F0E082E0868381E08093600098ED43
:1004600094BF809340008AE0808380EA9AE060E055
:100470000E94440580EA9AE00E94F90980EB99E025
:1004800060E00E9444050E940D010E94E5010E9467
:10049000E6000E94A103E0E0F8E087E0808384E6C4
:1004A00090E086A397A387E8E0EAF0E0828378945F
:1004B00080E00E940A0B81E00E940A0B80E061E06C
:1004C0000E94F90A12E001E06624689461F8992418
:1004D000689492F80F2EF3E08F2EF02D0F2EFEEE83
:1004E000EF2EFEEEFF2EF02DCC24CA94DC2CAA2495
:1004F000BB246894B0F80F2EF5E07F2EF02DC0E0FD
:10050000D8E001C001950E941F050E94680B0E945F
:10051000230B0E94460B80910620813091F40E94AB
:10052000CE03882331F481E0809302200E940E0BD9
:1005300008C0609202208AE20E94EE0181E00E94DF
:100540000E0B80910220833009F499C0843030F47E
:10055000813059F0823009F0E4C023C0843009F4BE
:1005600091C0853009F0DDC0D7C080E094E00E94E2
:100570008C0180910820909109209C01220F331F4B
:10058000220F331F820F931F969587959695879517
:100590009695879586559F4F0E94FC018092022078
:1005A000C0C0109208201092092024C080E290E080
:1005B0000E948C0180910820909109202EEE8F3EA0
:1005C0009207C0F40E940A02009721F4E0920820EA
:1005D000F09209200E940A028436910538F00E94A8
:1005E0000A02845690400E94FC0104C080E090E022
:1005F0000E94FC0180910820909109202EEE8E3EF1
:100600009207A0F2C0920820D092092027C080E271
:1006100090E00E948C0180910820909109208F3FEA
:100620009105E1F0D8F00E940A022FE08F3F920777
:1006300021F4A0920820B09209200E940A022FE023
:100640008F3F920738F40E940A028C599F4F0E94F4
:10065000FC0104C08FEF9FE00E94FC018091082004
:100660009091092021E08130920788F60E940A02C9
:10067000885A9D4F0E94FC017092022052C09092B5
:1006800002204FC080E094E00E94340180910A2053
:1006900090910B209C01220F331F220F331F820FDA
:1006A000931F9695879596958795969587958050F3
:1006B0009E4F0E94030280EA9AE060E20E94A20537
:1006C00080EA9AE06BE20E94A20560910A20709194
:1006D0000B20CB01880F991F880F991F680F791F76
:1006E00076956795769567957695679580EA9AE011
:1006F0000E947B0780EA9AE06EE20E94A205609168
:100700000A2070910B2080EA9AE00E947B0780EA21
:100710009AE060E20E94A20581E00E940A0B10921A
:1007200002208C8580FFFDCF81E08C8780E0612FE7
:100730000E94F90A100F812F81508E3F08F0E2CEFF
:10074000E2CE0895CF93DF93E0E0FAE085E0808386
:1007500011821282138214828AE20E94EE0180EDDD
:1007600097E00E940302C0E8D3E083E08A8389E235
:100770000E94DB008DE38883E0E0F6E080E886837A
:10078000818310920220DF91CF9108951092000A88
:1007900089E20E94EE010E94E600089580E00E9436
:1007A000470B0895809300200895E0E0FAE010A23E
:1007B00011A28FEF848708950E94D50308959C01AC
:1007C0006817790730F481E02417350718F080E0C6
:1007D000089580E0089580910120803531F080E512
:1007E000809301208AE0809303200895CF93DF93C4
:1007F000EC0180EB99E06DE20E94A20580EB99E0AC
:100800006DE20E94A20580EB99E06DE20E94A205D4
:1008100080EB99E0BE010E947B0780EB99E06DE2DE
:100820000E94A20580EB99E06DE00E94A205CE0136
:1008300060E070E140E050E20E94DF03813091F41B
:100840008FE48093012081E08093042080E20E9465
:10085000130A8CE30E94130A8DE20E94130A81E4BA
:100860000E94130ACE0160E070E240E050E30E9473
:10087000DF03813091F48EE48093012082E0809345
:10088000042080E20E94130A8CE30E94130A8DE286
:100890000E94130A82E40E94130ACE0160E070E411
:1008A00040E050E50E94DF03813089F40E94EB03B1
:1008B00083E08093042080E20E94130A8CE30E946C
:1008C000130A8DE20E94130A83E40E94130ACE01E8
:1008D00060E070E740E050E80E94DF038130A9F457
:1008E00080910420843011F00E94EB0384E0809317
:1008F000042080E20E94130A8CE30E94130A8DE216
:100900000E94130A84E40E94130ADF91CF91089594
:10091000CF93DF93E0E0FAE0C0A1D1A1848580FD10
:1009200012C08DE00E94130A8AE00E94130A8DE231
:100930000E94130A8DE20E94130ACE010E9415093B
:10094000CE010E94F603DF91CF9108951F920F927E
:100950000FB60F9211242F933F934F935F936F9392
:100960007F938F939F93AF93BF93CF93DF93EF9337
:10097000FF93E0E8F3E0878184FF28C081E00E94D4
:100980000E0B80910020873511F40E94D5038091D1
:100990000020883509F040C0E0E0FAE0C0A1D1A114
:1009A000848580FD39C08DE00E94130A8AE00E9490
:1009B000130A8DE20E94130A8DE20E94130ACE01EF
:1009C0000E941509CE010E94F60326C081E00E9414
:1009D0000A0B809100208735C9F4E0E0FAE0C0A15D
:1009E000D1A1848580FD12C08DE00E94130A8AE0A7
:1009F0000E94130A8DE20E94130A8DE20E94130ADC
:100A0000CE010E941509CE010E94F60380910020BC
:100A1000883511F40E94D503FF91EF91DF91CF91BA
:100A2000BF91AF919F918F917F916F915F914F9106
:100A30003F912F910F900FBE0F901F9018958091AE
:100A400001208F3419F08035D1F405C080E8E0E052
:100A5000F6E08583089580910320882341F480E89F
:100A6000E0E0F6E086838EE48093012008958150D3
:100A70008093032080E8E0E0F6E08583089580E835
:100A8000E0E0F6E086830895FC0188E0E03AF807AC
:100A900051F4A0E4B6E088E011968C931197159676
:100AA0008C93159737C088E0E03BF80751F4A0E439
:100AB000B6E080E811968C93119715968C93159754
:100AC00029C089E0E03AF80751F4A0E6B6E088E0F2
:100AD00011968C93119715968C9315971BC089E0EE
:100AE000E03BF80751F4A0E6B6E080E811968C935D
:100AF000119715968C9315970DC08AE0E03AF80788
:100B000049F4A0E8B6E088E011968C931197159609
:100B10008C931597613039F0623051F48CEA8783F9
:100B200085EC868309C088EA87838EE6868304C0C5
:100B300084EA878387E18683138288E1848383E064
:100B400085830895FC01818185FFFDCF6083089531
:100B5000CF93DF93EC01673009F49DC0683090F4C7
:100B6000633009F458C0643030F46130A1F1623070
:100B700008F041C020C0653009F46DC0663008F04F
:100B80007AC059C06B3009F4C6C06C3038F4693093
:100B900009F4A1C06A3008F0AEC08DC06D3009F410
:100BA000DAC06D3008F4C7C06E3009F4E4C06F30AD
:100BB00009F000C1F0C060E30E94A205CE0160E32D
:100BC0000E94A205CE0160E30E94A205CE0160E36F
:100BD0000E94A205EFC060E30E94A205CE0160E37F
:100BE0000E94A205CE0160E30E94A205CE0161E34E
:100BF0000E94A205DFC060E30E94A205CE0160E36F
:100C00000E94A205CE0161E30E94A205CE0160E32D
:100C10000E94A205CFC060E30E94A205CE0160E35E
:100C20000E94A205CE0161E30E94A205CE0161E30C
:100C30000E94A205BFC060E30E94A205CE0161E34D
:100C40000E94A205CE0160E30E94A205CE0160E3EE
:100C50000E94A205AFC060E30E94A205CE0161E33D
:100C60000E94A205CE0160E30E94A205CE0161E3CD
:100C70000E94A2059FC060E30E94A205CE0161E32D
:100C80000E94A205CE0161E30E94A205CE0160E3AD
:100C90000E94A2058FC060E30E94A205CE0161E31D
:100CA0000E94A205CE0161E30E94A205CE0161E38C
:100CB0000E94A2057FC061E30E94A205CE0160E30D
:100CC0000E94A205CE0160E30E94A205CE0160E36E
:100CD0000E94A2056FC061E30E94A205CE0160E3FD
:100CE0000E94A205CE0160E30E94A205CE0161E34D
:100CF0000E94A2055FC061E30E94A205CE0160E3ED
:100D00000E94A205CE0161E30E94A205CE0160E32C
:100D10000E94A2054FC061E30E94A205CE0160E3DC
:100D20000E94A205CE0161E30E94A205CE0161E30B
:100D30000E94A2053FC061E30E94A205CE0161E3CB
:100D40000E94A205CE0160E30E94A205CE0160E3ED
:100D50000E94A2052FC061E30E94A205CE0161E3BB
:100D60000E94A205CE0160E30E94A205CE0161E3CC
:100D70000E94A2051FC061E30E94A205CE0161E3AB
:100D80000E94A205CE0161E30E94A205CE0160E3AC
:100D90000E94A2050FC061E30E94A205CE0161E39B
:100DA0000E94A205CE0161E30E94A205CE0161E38B
:100DB0000E94A205DF91CF9108951F93CF93DF93F7
:100DC000EC01162F62E60E94A205612F62956F70FA
:100DD000CE010E94A805612F6F70CE010E94A80568
:100DE000DF91CF911F910895673009F43FC06830BB
:100DF00070F4633059F1643028F46130F9F06230F6
:100E000008F518C0653051F1663060F523C06B30CD
:100E1000E9F16C3028F4693089F16A3098F52AC01C
:100E20006D30E1F16D30B0F16E30E1F16F3009F00D
:100E300040C03CC060E30E94A205089561E30E94A7
:100E4000A205089562E30E94A205089563E30E944B
:100E5000A205089564E30E94A205089565E30E9437
:100E6000A205089566E30E94A205089567E30E9423
:100E7000A205089568E30E94A205089569E30E940F
:100E8000A205089561E40E94A205089562E40E940B
:100E9000A205089563E40E94A205089564E40E94F7
:100EA000A205089565E40E94A205089566E40E94E3
:100EB000A20508951F93CF93DF93EC01162F62953F
:100EC0006F700E94F406612F6F70CE010E94F406CD
:100ED000DF91CF911F9108951F93CF93DF93EC0182
:100EE000142F0E945A07CE01612F0E945A07DF91EA
:100EF000CF911F9108951F93CF93DF93EC01162F8D
:100F0000672F0E945A07CE01612F0E945A07DF9176
:100F1000CF911F910895873009F487C0883088F4F5
:100F2000833009F44EC0843028F4813081F182305E
:100F3000D8F520C0853009F45EC0863008F068C05E
:100F40004DC08B3009F4A5C08C3038F4893009F4D9
:100F500086C08A3008F090C075C08D3009F4B3C0E7
:100F60008D3008F4A3C08E3009F4BAC08F3009F078
:100F7000D0C0C3C080E30E94130A80E30E94130A1A
:100F800080E30E94130A80E30E94130A089580E31D
:100F90000E94130A80E30E94130A80E30E94130A4E
:100FA00081E30E94130A089580E30E94130A80E3FC
:100FB0000E94130A81E30E94130A80E30E94130A2D
:100FC000089580E30E94130A80E30E94130A81E3DC
:100FD0000E94130A81E30E94130A089580E30E948D
:100FE000130A81E30E94130A80E30E94130A80E33C
:100FF0000E94130A089580E30E94130A81E30E946D
:10100000130A80E30E94130A81E30E94130A0895E1
:1010100080E30E94130A81E30E94130A81E30E9485
:10102000130A80E30E94130A089580E30E94130AC2
:1010300081E30E94130A81E30E94130A81E30E9464
:10104000130A089581E30E94130A80E30E94130AA1
:1010500080E30E94130A80E30E94130A089581E34B
:101060000E94130A80E30E94130A80E30E94130A7D
:1010700081E30E94130A089581E30E94130A80E32A
:101080000E94130A81E30E94130A80E30E94130A5C
:10109000089581E30E94130A80E30E94130A81E30A
:1010A0000E94130A81E30E94130A089581E30E94BB
:1010B000130A81E30E94130A80E30E94130A80E36B
:1010C0000E94130A089581E30E94130A81E30E949B
:1010D000130A80E30E94130A81E30E94130A089511
:1010E00081E30E94130A81E30E94130A81E30E94B4
:1010F000130A80E30E94130A089581E30E94130AF1
:1011000081E30E94130A81E30E94130A81E30E9493
:10111000130A0895CF93C82F82E60E94130A8C2FDA
:1011200082958F700E948B078C2F8F700E948B0787
:10113000CF910895873009F43FC0883070F4833030
:1011400059F1843028F48130F9F0823008F518C064
:10115000853051F1863060F523C08B30E9F18C3059
:1011600028F4893089F18A3098F52AC08D30E1F170
:101170008D30B0F18E30E1F18F3009F040C03CC0CD
:1011800080E30E94130A089581E30E94130A0895E0
:1011900082E30E94130A089583E30E94130A0895CC
:1011A00084E30E94130A089585E30E94130A0895B8
:1011B00086E30E94130A089587E30E94130A0895A4
:1011C00088E30E94130A089589E30E94130A089590
:1011D00081E40E94130A089582E40E94130A08958C
:1011E00083E40E94130A089584E40E94130A089578
:1011F00085E40E94130A089586E40E94130A089564
:10120000CF93C82F82958F700E949A088C2F8F7071
:101210000E949A08CF910895CF93C62F0E9400098B
:101220008C2F0E940009CF910895CF93C82F892F4A
:101230000E9400098C2F0E940009CF910895E0912F
:101240001621F09117218381826083830895E091B4
:101250001621F091172183818C7F83830895E0917B
:101260001621F0911721818185FD1BC030C020918E
:101270001521309115213F5F3093152130911521B3
:101280003A3F10F010921521DC01A20FB11D2C91F4
:101290002083E0911621F0911721218125FD03C0C3
:1012A00016C08AE190E23091192020911521321761
:1012B00030F02091192030911521231B06C0209178
:1012C0001920309115212650231B222381F690915D
:1012D000192080911521981730F080911920909154
:1012E0001521891B06C080911920909115218650E7
:1012F000891B882319F00E941F0908950E9427095D
:1013000008951F920F920FB60F9211242F933F93BF
:101310004F935F936F937F938F939F93AF93BF93FD
:10132000EF93FF93E0911621F0911721818185FDC4
:101330001BC030C020911521309115213F5F3093A3
:101340001521309115213A3F10F010921521DC0142
:10135000A20FB11D2C912083E0911621F09117214D
:10136000218125FD03C016C08AE190E23091192049
:1013700020911521321730F020911920309115213C
:10138000231B06C020911920309115212650231BC4
:10139000222381F69091192080911521981730F021
:1013A0008091192090911521891B06C080911920E8
:1013B000909115218650891B882319F00E941F09DE
:1013C00002C00E942709FF91EF91BF91AF919F91B9
:1013D0008F917F916F915F914F913F912F910F90DE
:1013E0000FBE0F901F901895109219201092152182
:1013F000089580931621909317210E94F40908956F
:101400009091192080911521981730F08091192022
:1014100090911521891B0895809119209091152193
:101420008650891B089590911920EAE1F0E2E90FB6
:10143000F11D8083809119208F5F80931920809106
:1014400019208A3F10F010921920E0911621F09196
:101450001721818185FD1BC030C02091152130915D
:1014600015213F5F30931521309115213A3F10F03F
:1014700010921521DC01A20FB11D2C912083E09167
:101480001621F0911721218125FD03C016C08AE1A4
:1014900090E23091192020911521321730F02091DF
:1014A000192030911521231B06C02091192030915D
:1014B00015212650231B222381F69091192080911B
:1014C0001521981730F08091192090911521891BD2
:1014D00006C080911920909115218650891B882380
:1014E00019F00E941F0908950E942709089580910C
:1014F0001521909115219F5F9093152190911521B1
:101500009A3F10F010921521EAE1F0E2E80FF11D88
:10151000808108951092142110920E2008959091C8
:10152000142180910E20981730F080911421909111
:101530000E20891B08958091142190910E20865FC2
:10154000891B089590911421EFE0F0E2E90FF11D5D
:101550008083809114218F5F8093142180911421C6
:101560008A3010F010921421089580910E209091ED
:101570000E209F5F90930E2090910E209A3010F0D5
:1015800010920E20EFE0F0E2E80FF11D8081089547
:10159000E0E6F6E081E18183858380E4808B848BC3
:1015A000E0E0F9E057E0508343E141838FEF90E0C2
:1015B00086A397A320E830E020A731A7E0E4F9E074
:1015C0005083418386A397A380E190E080A791A7F1
:1015D000E0E4F6E08CE3828388E9858B848B838B5F
:1015E00084E0828783E081878AE9828B10920620DB
:1015F0000895882319F0813061F406C070E0E0E4BA
:10160000F9E060AF71AF089570E0E0E0F9E060AF3D
:1016100071AF089560E00E94F90A08956FEF0E948B
:10162000F90A0895882319F0813061F406C0E0E4D6
:10163000F9E080A5809580A70895E0E0F9E080A515
:10164000809580A7089508951F920F920FB60F926C
:1016500011248F93EF93FF93E0E4F6E082898A39B7
:1016600031F489E9828B81E08093062007C08AE902
:10167000E0E4F6E0828B82E080930620FF91EF9118
:101680008F910F900FBE0F901F9018950895813085
:1016900069F0813018F08230C9F410C0E0E4F6E05F
:1016A000908581E095FF13C080E00895E0E4F6E0C6
:1016B000908581E094FF0BC080E00895E0E4F6E0BF
:1016C000908581E093FF03C080E0089580E0089555
:1016D00080E00E94470B813051F4809105208533D2
:1016E00079F085E3809305200E94A20309C08091D0
:1016F0000520863329F086E3809305200E94C603E7
:1017000081E00E94470B813061F40E94CE03882360
:1017100021F481E00E9400010FC088E50E94D203FD
:101720000BC00E94CE03882321F482E00E940001B6
:1017300003C087E50E94D20382E00E94470B8130FC
:1017400041F40E94CE03882351F482E00E94F0000D
:1017500008950E94CE03882311F40E94F00008959A
:10176000A1E21A2EAA1BBB1BFD010DC0AA1FBB1FA5
:10177000EE1FFF1FA217B307E407F50720F0A21B17
:10178000B30BE40BF50B661F771F881F991F1A9484
:1017900069F760957095809590959B01AC01BD01AE
:0817A000CF010895F894FFCF7A
:0217A800574E9A
:00000001FF
