:100000000C94BC000C94D9000C94A3050C94D9005A
:100010000C94D9000C94D9000C94D9000C94D900FC
:100020000C94D9000C94D9000C94D9000C94D900EC
:100030000C94D9000C94D9000C94D9000C94D900DC
:100040000C94D9000C94D9000C94D9000C94D900CC
:100050000C94D9000C94D9000C94D9000C94D900BC
:100060000C94D9000C94D9000C94D9000C94D900AC
:100070000C94D9000C94D9000C94D9000C94D9009C
:100080000C94D9000C94D9000C94D9000C94D9008C
:100090000C94D9000C94D9000C94D9000C94D9007C
:1000A0000C94D9000C94D9000C94D9000C94D9006C
:1000B0000C94D9000C94D9000C94D9000C94D9005C
:1000C0000C94D9000C94D9000C94D9000C94D9004C
:1000D0000C94D9000C94D9000C94D9000C94D9003C
:1000E0000C94D9000C94D9000C94D9000C94DF081E
:1000F0000C94D9000C94D9000C94D9000C94D9001C
:100100000C94D9000C94D9000C94D9000C94D9000B
:100110000C9416080C94D9000C94D9000C94D900B6
:100120000C94D9000C94D9000C94D9000C94D900EB
:100130000C94D9000C94D9000C94D9000C94D900DB
:100140000C94D9000C94D9000C94D9000C94D900CB
:100150000C94D9000C94D9000C94D9000C94D900BB
:100160000C94D9000C94D9000C94D9000C94D900AB
:100170000C94D9000C94D90011241FBECFEFD7E204
:10018000DEBFCDBF10E2A0E0B0E2E4E7F3E102C0E1
:1001900005900D92A230B107D9F711E2A2E0B0E2CA
:1001A00001C01D92A831B107E1F70E94DB000C9459
:1001B000B8090C940000DF92EF92FF920F931F9307
:1001C000CF93DF930E94430582E2E0E5F0E0828373
:1001D0008BE08093500080E00E948B05809151005D
:1001E0008B30E1F780E00E94870582E0E0E5F0E0F7
:1001F000868391E09093600088ED84BF90934000E7
:100200008AE08093500080EA9AE060E00E94D0018A
:1002100080EA9AE00E94030980EB99E060E00E9486
:10022000D0010E9466060E941C060E943C060E94A5
:10023000500787E08093000884E690E0E0E0F8E073
:1002400086A397A387E8E0EAF0E08283789480E0D1
:100250000E94870581E00E94870501E0FF24F39456
:10026000E3E0DE2E72E0E72EC0E0D8E080E0602F11
:100270000E9474050F0D802F81508E3F08F0F1947D
:100280000E9471070E94E0050E94A2050E94C2051B
:1002900010910920113049F40E945E08882329F446
:1002A0001093022081E00E948B0580910220823011
:1002B00001F1833009F1813009F06BC080E094E0F6
:1002C0000E94F2062091072030910820C901880F72
:1002D000991F880F991F820F931F53E0969587955A
:1002E0005A95E1F786559F4F0E943106E092022011
:1002F00050C0D09202204DC080E094E00E9495064C
:1003000020910A2030910B20C901880F991F880F76
:10031000991F820F931F33E0969587953A95E1F7E1
:1003200080509E4F0E94360680EA9AE060E20E946A
:100330001A0280EA9AE06BE20E941A0280910A2077
:1003400090910B20BC01660F771F660F771F680F17
:10035000791F83E0769567958A95E1F780EA9AE0C0
:100360000E943F0480EA9AE06EE20E941A026091C5
:100370000A2070910B2080EA9AE00E943F0480EAF4
:100380009AE060E20E941A0281E00E9487051092C2
:10039000022080910C0880FFFCCF81E08C8766CF23
:1003A000DC0188E0A03AB80719F4E0E4F6E01CC0EC
:1003B00088E0A03BB80719F4E0E4F6E00DC089E05E
:1003C000A03AB80719F4E0E6F6E00EC089E0A03BD9
:1003D000B80721F4E0E6F6E080E807C08AE0A03A3A
:1003E000B80729F4E0E8F6E088E08183858361308E
:1003F00041F0623061F48CEA17968C93179785EC84
:100400000BC088EA17968C9317978EE605C084EA8E
:1004100017968C93179787E116968C9316971396D9
:100420001C92139788E114968C93149783E0159689
:100430008C930895FC01818185FFFDCF6083089531
:10044000FC01673009F4B2C0683090F4633009F4FD
:1004500061C0643030F46130B9F1623008F047C0F7
:1004600020C0653009F47CC0663008F08CC065C0DF
:100470006B3009F4E7C06C3038F4693009F4BCC063
:100480006A3008F0CCC0A5C06D3009F401C16D30F0
:1004900008F4EBC06E3009F40FC16F3009F035C1BC
:1004A00020C1818185FFFDCF80E38083818185FF2D
:1004B000FDCF80E38083818185FFFDCF80E3808352
:1004C000818185FFFDCF0AC1818185FFFDCF80E35A
:1004D0008083818185FFFDCF80E38083818185FFDB
:1004E000FDCF80E38083818185FFFDCFE3C08181E3
:1004F00085FFFDCF80E38083818185FFFDCF80E391
:100500008083818185FFFDCF81E38083818185FFA9
:10051000FDCFE4C0818185FFFDCF80E380838181B1
:1005200085FFFDCF80E38083818185FFFDCF81E35F
:100530008083818185FFFDCFBDC0818185FFFDCF97
:1005400080E38083818185FFFDCF81E3808381818A
:1005500085FFFDCF80E38083818185FFFDCFBEC015
:10056000818185FFFDCF80E38083818185FFFDCF81
:1005700081E38083818185FFFDCF80E3808381815A
:1005800085FFFDCF97C0818185FFFDCF80E380830C
:10059000818185FFFDCF81E38083818185FFFDCF50
:1005A00081E38083818185FFFDCF98C0818185FFB4
:1005B000FDCF80E38083818185FFFDCF81E3808350
:1005C000818185FFFDCF81E38083818185FFFDCF20
:1005D00071C0818185FFFDCF81E38083818185FFAB
:1005E000FDCF80E38083818185FFFDCF80E3808321
:1005F000818185FFFDCF72C0818185FFFDCF81E3C1
:100600008083818185FFFDCF80E38083818185FFA9
:10061000FDCF80E38083818185FFFDCF4BC0818149
:1006200085FFFDCF81E38083818185FFFDCF80E35E
:100630008083818185FFFDCF81E38083818185FF78
:10064000FDCF4CC0818185FFFDCF81E38083818117
:1006500085FFFDCF80E38083818185FFFDCF81E32E
:100660008083818185FFFDCF25C0818185FFFDCFFE
:1006700081E38083818185FFFDCF81E38083818158
:1006800085FFFDCF80E38083818185FFFDCF26C07C
:10069000818185FFFDCF81E38083818185FFFDCF4F
:1006A00081E38083818185FFFDCF80E38083818129
:1006B00085FFFDCF81E313C0818185FFFDCF81E3FD
:1006C0008083818185FFFDCF81E38083818185FFE8
:1006D000FDCF81E38083818185FFFDCF80E380832F
:1006E0000895818185FFFDCF81E38083818185FF2E
:1006F000FDCF81E38083818185FFFDCF81E380830E
:10070000818185FFFDCF81E3808308951F93CF937F
:10071000DF93EC01162F898185FFFDCF82E6888368
:10072000612F62956F70CE010E9420021F70CE0172
:10073000612F0E942002DF91CF911F910895FC014B
:10074000673009F44BC0683070F4633099F164305D
:1007500028F4613029F1623040F51DC06530A1F107
:100760006630B8F52CC06B3009F44CC06C3030F4F6
:100770006930F1F16A3008F040C035C06D3009F4DD
:100780004BC06D3008F443C06E3009F44AC06F307E
:1007900009F052C04CC0818185FFFDCF80E345C088
:1007A000818185FFFDCF81E340C0818185FFFDCF41
:1007B00082E33BC0818185FFFDCF83E336C0818129
:1007C00085FFFDCF84E331C0818185FFFDCF85E3C7
:1007D0002CC0818185FFFDCF86E327C0818185FF05
:1007E000FDCF87E322C0818185FFFDCF88E31DC057
:1007F000818185FFFDCF89E318C0818185FFFDCF11
:1008000081E413C0818185FFFDCF82E40EC0818128
:1008100085FFFDCF83E409C0818185FFFDCF84E49E
:1008200004C0818185FFFDCF85E4808308958181A7
:1008300085FFFDCF86E480830895FF920F931F9379
:100840008C01F62E62956F700E949F038FE0F82254
:10085000C8016F2D0E949F031F910F91FF90089573
:10086000FF920F931F938C01F42E0E941D04C80168
:100870006F2D0E941D041F910F91FF900895FF920C
:100880000F931F938C01F62E672F0E941D04C80141
:100890006F2D0E941D041F910F91FF9008958730C6
:1008A00081F1883070F4833021F1843028F4813074
:1008B000E1F08230E0F417C08530F9F08630F8F4CA
:1008C0001AC08B3031F18C3028F48930F1F08A3045
:1008D000F0F419C08D3009F18D30E8F08E30F9F068
:1008E0008F3021F520C080E31BC081E319C082E373
:1008F00017C083E315C084E313C085E311C086E30A
:100900000FC087E30DC088E30BC089E309C081E411
:1009100007C082E405C083E403C084E401C085E429
:100920000E943409089586E40E94340908951F93B3
:10093000182F82958F700E944F04812F8F700E9414
:100940004F041F9108951F93182F892F0E94970419
:10095000812F0E9497041F9108951F93162F0E94C4
:100960009704812F0E9497041F910895873091F179
:10097000883070F4833031F1843028F48130F1F024
:100980008230F0F419C0853009F1863008F51CC0BA
:100990008B30A1F18C3028F4893031F18A3048F560
:1009A0001EC08D30D9F18D3088F18E3009F441C0F0
:1009B0008F3009F057C04AC080E312C080E315C0F1
:1009C00080E318C080E31BC080E321C080E327C020
:1009D00080E330C080E30E94340981E313C081E3E7
:1009E0000E94340980E316C081E30E94340980E349
:1009F00019C081E30E94340980E31FC081E30E9493
:100A0000340980E30E94340981E30FC081E30E942E
:100A1000340981E30E94340980E312C081E30E941B
:100A2000340981E30E94340980E30E94340981E3A0
:100A30000AC081E30E94340981E30E94340981E302
:100A40000E94340980E30E943409089581E30E94E2
:100A5000340981E30E94340981E30E94340981E36F
:100A60000E94340908951F93182F82E60E943409CA
:100A7000812F82958F700E94B604812F8F700E9403
:100A8000B6041F910895E0E6F6E081E18183858355
:100A900080E4808B848BE0E0F9E057E0508343E111
:100AA00041832FEF30E026A337A380E890E080A7B2
:100AB00091A7E0E4F9E05083418326A337A380E1C6
:100AC00090E080A791A7E0E4F6E08CE3828388E9D8
:100AD000858B848B838B84E0828783E081878AE99E
:100AE000828B109209200895882319F0813071F4C7
:100AF00007C0862F90E0E0E4F9E080AF91AF089561
:100B0000862F90E0E0E0F9E080AF91AF089560E0DB
:100B10000E94740508956FEF0E947405089588235C
:100B200019F0813071F407C0809168098095E0E484
:100B3000F9E080A70895809128098095E0E0F9E028
:100B400080A7089508951F920F920FB60F92112457
:100B50008F93EF93FF93E0E4F6E0809152068A3999
:100B600021F489E9828B81E003C08AE9828B82E0EB
:100B700080930920FF91EF918F910F900FBE0F90FE
:100B80001F9018950895813061F0813020F08230F7
:100B900079F080E008958091480682958695877067
:100BA00004C08091480682958F7080958170089569
:100BB00080914806869586958695809581700895E2
:100BC00080E00E94C30590910320813041F4953369
:100BD00069F085E3809303200E946A0807C096337A
:100BE00029F086E3809303200E94620881E00E943E
:100BF000C305813031F40E945E08882349F481E006
:100C000005C00E945E08882319F482E00E945C06F9
:100C100082E00E94C305813041F40E945E0888236F
:100C200051F482E00E94500608950E945E088823D5
:100C300011F40E9450060895E0E2F3E08DE0808315
:100C400080E4818388E082830895893221F4809151
:100C500020038B7F03C08091200384608093200356
:100C60000895E0E2F3E0808F918F0895E0E2F3E0F1
:100C7000828F938F08950895E0E8F3E08DE08083FC
:100C800083E0828381E084830895893221F4E0E85F
:100C9000F3E01482089581E0E0E8F3E084830895AE
:100CA000813021F0823021F48DE003C08BE001C05F
:100CB00089E0809380030895813011F488E201C0B7
:100CC00083E0E0E8F3E0828308950895E0E0F2E055
:100CD00090E19283118281E0808391A388E181A7D2
:100CE000089581E8E0E0F2E080A380912302882368
:100CF000E1F381E0E0E0F2E083A32091240230916F
:100D00002502C901089581E8E0E0F2E080A7809122
:100D10002B028823E1F381E0E0E0F2E083A7209159
:100D20002C0230912D02C9010895AF92BF92CF924B
:100D3000DF92EF92FF920F931F93CF93DF93AC015B
:100D4000EE24FF24870120E030E0EFEFFFEF60E0CA
:100D500070E0C12C92E0D92E81E8A82EC0E0D2E04C
:100D6000BB24B3941CC0D6019096AC928091230210
:100D70008823E1F3BBA280912402909125028E1773
:100D80009F0708F4FC016817790708F4BC01A0E08C
:100D9000B0E0E80EF91E0A1F1B1F2F5F3F4F2417FC
:100DA000350708F3E0930C20F0930D2060930A20A0
:100DB00070930B20409306209A0140E050E0C80158
:100DC000B7010E9496092093072030930820DF91F5
:100DD000CF911F910F91FF90EF90DF90CF90BF9038
:100DE000AF900895AF92BF92CF92DF92EF92FF92B1
:100DF0000F931F93CF93DF93AC01EE24FF24870161
:100E000020E030E0EFEFFFEF60E070E0C12CB2E0F7
:100E1000DB2EA1E8AA2EC0E0D2E0BB24B3941CC014
:100E2000D6019896AC9280912B028823E1F3BBA661
:100E300080912C0290912D028E179F0708F4FC01DF
:100E40006817790708F4BC01A0E0B0E0E80EF91ECD
:100E50000A1F1B1F2F5F3F4F2417350708F3E0932E
:100E60000C20F0930D2060930A2070930B20409388
:100E700006209A0140E050E0C801B7010E9496099F
:100E80002093072030930820DF91CF911F910F917D
:100E9000FF90EF90DF90CF90BF90AF9008950895AE
:100EA0000895E0E0FAE010A211A28FEF8487089580
:100EB0006817790710F020E007C020E08417950735
:100EC00008F021E081E02827822F089580910020FA
:100ED000803531F080E58093002084E68093042003
:100EE0000895809100208F3489F08035A1F480919D
:100EF0000420882341F480E8E0E0F6E086838EE475
:100F000080930020089581508093042080E8E0E0E1
:100F1000F6E08583089580E8E0E0F6E086830895B2
:100F2000CF93DF93EC0180E1C130D80708F47BC098
:100F300080E2C030D80790F48FE48093002081E0F5
:100F40008093052080E20E9434098CE30E943409DA
:100F50008DE20E94340981E40E94340980E2C130AC
:100F6000D80708F460C080E3C030D80790F48EE45E
:100F70008093002082E08093052080E20E94340963
:100F80008CE30E9434098DE20E94340982E40E94BD
:100F9000340980E4C130D80708F445C080E5C0308A
:100FA000D807E8F480910520833051F0809100202B
:100FB000803531F080E58093002084E68093042022
:100FC00083E08093052080E20E9434098CE30E9434
:100FD00034098DE20E94340983E40E94340980E7D9
:100FE000C130D80700F1C050D048E8F48091052006
:100FF000843051F080910020803531F080E580937D
:10100000002084E68093042084E08093052080E221
:101010000E9434098CE30E9434098DE20E94340955
:1010200084E40E943409DF91CF9108951F920F92BA
:101030000FB60F9211242F933F934F935F936F93AB
:101040007F938F939F93AF93BF93CF93DF93EF9350
:10105000FF9381E00E948F058091870384FF07C082
:10106000E0E0FAE010A211A28FEF848714C0C091D3
:10107000200AD091210A80910C0A80FD0CC08DE0DD
:101080000E9434098AE00E943409CE010E94A30420
:10109000CE010E949007FF91EF91DF91CF91BF9118
:1010A000AF919F918F917F916F915F914F913F9100
:1010B0002F910F900FBE0F901F90189580E00E9407
:1010C000C30508951092000A8AE20E9425060E9434
:1010D0003C0608950F931F93E0E0FAE085E08083DB
:1010E000118212821382148289E20E942506E0E2B4
:1010F000F6E084E08683818300E813E087E0F8016E
:10110000828384E1858389E20E9445068DE3F801AC
:101110008083E0E0F6E080E88683818310920220FD
:101120001F910F910895A0911621B091172112C01F
:10113000E0911521809115218F5F80931521809179
:1011400015218A3F10F010921521F0E0E65EFF4D68
:1011500080818C9311968C91119785FF12C090918C
:10116000192080911521981728F0909119208091CD
:10117000152105C090911920809115219650981B3A
:10118000B9F69091192080911521981728F0909127
:1011900019208091152105C0909119208091152169
:1011A0009650981B29F013968C911397826004C077
:1011B00013968C9113978C7F13968C9308951F929E
:1011C0000F920FB60F9211242F933F934F935F937B
:1011D0006F937F938F939F93AF93BF93EF93FF93FF
:1011E0000E949308FF91EF91BF91AF919F918F91D2
:1011F0007F916F915F914F913F912F910F900FBE13
:101200000F901F901895809316219093172110929C
:101210001920109215210895E0911621F0911721BF
:101220008381826083830895E0911621F0911721D4
:1012300083818C7F83830895109219201092152149
:1012400008959091192080911521981728F0909178
:1012500019208091152105C09091192080911521A8
:101260009650981B892F0895E0911920F0E0E65ED2
:10127000FF4D8083809119208F5F8093192080918A
:1012800019208A3F10F0109219200E9493080895A7
:10129000E0911521809115218F5F80931521809118
:1012A00015218A3F10F010921521F0E0E65EFF4D07
:1012B000808108951092142110920E20089590912B
:1012C000142180910E20981728F09091142180917C
:1012D0000E2005C09091142180910E20965F981BDE
:1012E000892F0895E0911421F0E0E15FFF4D8083A4
:1012F000809114218F5F80931421809114218A3072
:1013000010F0109214210895E0910E2080910E208B
:101310008F5F80930E2080910E208A3010F0109203
:101320000E20F0E0E15FFF4D80810895A1E21A2ECA
:10133000AA1BBB1BFD010DC0AA1FBB1FEE1FFF1F79
:10134000A217B307E407F50720F0A21BB30BE40BC9
:10135000F50B661F771F881F991F1A9469F7609510
:101360007095809590959B01AC01BD01CF010895CA
:04137000F894FFCF1F
:021374004E0029
:00000001FF
